:060000000201000201C232
:03000B000201A946
:1001000075816012012B12017B12036F752800129A
:1001100003CAE51860067518001201D212047B604C
:10012000F1F51C12027C12046D80E753D9BF75D91A
:100130000075B28375D4CF75D5FF75D6FF75F1FF05
:1001400075F2FF75F3FF75F4FF75A4C175A5FF7512
:10015000A60F75A71A75803F75900075A0FF75B042
:10016000E575E240758901758CF8758A0675E401BC
:10017000D288D2A8D2A9D2AFD28C22751B5A780EBF
:100180007F041201A4E58A651B2403F51B540FF5B7
:10019000F0C3940A5004E5F08005E5F0C39406F638
:1001A00008DFDF227E78DEFE22C0E0C0D0C000750E
:1001B0008CF8758A0675180112039CD000D0D0D037
:1001C000E0327516007529007528001203CA120363
:1001D0006F32E51F45206007D2B11202388002C29B
:1001E000B1E5264527600C120249E5264527700334
:1001F00012036FE516604012025AE51D451E70108D
:100200007516007529007528001203CA12036F22A3
:10021000D5210C752164E51A6401F51A12036F12D9
:10022000026BE5224523700F7522E8752303E5284C
:10023000C313F5281203CA22E51F700AE5206008DF
:100240001520751FFF22151F22E526700AE527607D
:100250000815277526FF22152622E51D700AE51EC2
:100260006008151E751DFF22151D22E522700AE586
:1002700023600815237522FF22152222E51CB46194
:10028000047F008013B462047F01800CB463047F98
:10029000028005B464107F03E516604BE5178FF00C
:1002A000B5F002806E22B4650412033722B46604EE
:1002B0001202CB22E51660EDE51CC3943140E6B492
:1002C000090050E104F52912033722750E09750F54
:1002D0000975100975110975160075290075280032
:1002E0001203CA12036F22EF240EF8E66034168F51
:1002F00017751601752900751D40751E1F751A01A9
:100300007521647522E87523037528FF1203CA124C
:10031000036F22EF240EF8E6600816752900120319
:100320006F22751FE87520038F2475258E7526E8CA
:1003300075270312036F22E5166019E5297003750E
:100340002901E517240EF8E6C395294008F675291A
:100350000012036F22751FE8752003E517F5247559
:10036000259E7526E875270375290012036F2278EC
:100370000E79127F04E690049793F70809DFF6E5FB
:1003800016600BE51A7007E5172412F87600E526CB
:1003900045276007E5242412F8A62522E519540311
:1003A000F5192412F8759000E51954016005438091
:1003B0004080035380BFE51954026005438080806C
:1003C0000353807FE6F590051922E528F4FD7E08A9
:1003D000C2B4ED33FD92B3D2B4DEF5C2B42275A03F
:1003E000FE120468E5A0F454F0702975A0FD120413
:1003F00068E5A0F454F0702875A0FB120468E5A02D
:10040000F454F0702775A0F7120468E5A0F454F0D6
:100410007026E42220E42D20E53620E63F74632296
:1004200020E42420E52D20E63674642220E41B20FD
:10043000E52420E62D74652220E41220E51B20E649
:10044000247466227430227431227432227433226E
:10045000743422743522743622743722743822742C
:1004600039227461227462227C14DCFE221203DEC3
:1004700070FB12048E1203DE70F3221203DE600D95
:10048000F51C12048E1203DEB51C0122E4227D2825
:100490007EFADEFEDDFA22FC60DAF266B6BEE0FE2F
:0104A000E675
:00000001FF
